{
  "_format": "hh-sol-artifact-1",
  "contractName": "AirbnbNFT",
  "sourceName": "contracts/AirbnbNFT.sol",
  "abi": [
    {
      "inputs": [],
      "stateMutability": "nonpayable",
      "type": "constructor"
    },
    {
      "anonymous": false,
      "inputs": [
        {
          "indexed": true,
          "internalType": "address",
          "name": "owner",
          "type": "address"
        },
        {
          "indexed": true,
          "internalType": "address",
          "name": "approved",
          "type": "address"
        },
        {
          "indexed": true,
          "internalType": "uint256",
          "name": "tokenId",
          "type": "uint256"
        }
      ],
      "name": "Approval",
      "type": "event"
    },
    {
      "anonymous": false,
      "inputs": [
        {
          "indexed": true,
          "internalType": "address",
          "name": "owner",
          "type": "address"
        },
        {
          "indexed": true,
          "internalType": "address",
          "name": "operator",
          "type": "address"
        },
        {
          "indexed": false,
          "internalType": "bool",
          "name": "approved",
          "type": "bool"
        }
      ],
      "name": "ApprovalForAll",
      "type": "event"
    },
    {
      "anonymous": false,
      "inputs": [
        {
          "indexed": true,
          "internalType": "uint256",
          "name": "tokenId",
          "type": "uint256"
        },
        {
          "indexed": false,
          "internalType": "address",
          "name": "owner",
          "type": "address"
        },
        {
          "indexed": false,
          "internalType": "string[]",
          "name": "datesBooked",
          "type": "string[]"
        }
      ],
      "name": "TokenListedSuccess",
      "type": "event"
    },
    {
      "anonymous": false,
      "inputs": [
        {
          "indexed": true,
          "internalType": "address",
          "name": "from",
          "type": "address"
        },
        {
          "indexed": true,
          "internalType": "address",
          "name": "to",
          "type": "address"
        },
        {
          "indexed": true,
          "internalType": "uint256",
          "name": "tokenId",
          "type": "uint256"
        }
      ],
      "name": "Transfer",
      "type": "event"
    },
    {
      "inputs": [
        {
          "internalType": "address",
          "name": "to",
          "type": "address"
        },
        {
          "internalType": "uint256",
          "name": "tokenId",
          "type": "uint256"
        }
      ],
      "name": "approve",
      "outputs": [],
      "stateMutability": "nonpayable",
      "type": "function"
    },
    {
      "inputs": [
        {
          "internalType": "address",
          "name": "owner",
          "type": "address"
        }
      ],
      "name": "balanceOf",
      "outputs": [
        {
          "internalType": "uint256",
          "name": "",
          "type": "uint256"
        }
      ],
      "stateMutability": "view",
      "type": "function"
    },
    {
      "inputs": [
        {
          "internalType": "string",
          "name": "tokenURI",
          "type": "string"
        },
        {
          "internalType": "string[]",
          "name": "newBookings",
          "type": "string[]"
        }
      ],
      "name": "createToken",
      "outputs": [
        {
          "internalType": "uint256",
          "name": "",
          "type": "uint256"
        }
      ],
      "stateMutability": "payable",
      "type": "function"
    },
    {
      "inputs": [
        {
          "internalType": "uint256",
          "name": "tokenId",
          "type": "uint256"
        }
      ],
      "name": "getApproved",
      "outputs": [
        {
          "internalType": "address",
          "name": "",
          "type": "address"
        }
      ],
      "stateMutability": "view",
      "type": "function"
    },
    {
      "inputs": [],
      "name": "getMyNFTs",
      "outputs": [
        {
          "components": [
            {
              "internalType": "uint256",
              "name": "tokenId",
              "type": "uint256"
            },
            {
              "internalType": "address",
              "name": "owner",
              "type": "address"
            },
            {
              "internalType": "string[]",
              "name": "datesBooked",
              "type": "string[]"
            }
          ],
          "internalType": "struct AirbnbNFT.ListedToken[]",
          "name": "",
          "type": "tuple[]"
        }
      ],
      "stateMutability": "view",
      "type": "function"
    },
    {
      "inputs": [
        {
          "internalType": "address",
          "name": "owner",
          "type": "address"
        },
        {
          "internalType": "address",
          "name": "operator",
          "type": "address"
        }
      ],
      "name": "isApprovedForAll",
      "outputs": [
        {
          "internalType": "bool",
          "name": "",
          "type": "bool"
        }
      ],
      "stateMutability": "view",
      "type": "function"
    },
    {
      "inputs": [],
      "name": "name",
      "outputs": [
        {
          "internalType": "string",
          "name": "",
          "type": "string"
        }
      ],
      "stateMutability": "view",
      "type": "function"
    },
    {
      "inputs": [
        {
          "internalType": "uint256",
          "name": "tokenId",
          "type": "uint256"
        }
      ],
      "name": "ownerOf",
      "outputs": [
        {
          "internalType": "address",
          "name": "",
          "type": "address"
        }
      ],
      "stateMutability": "view",
      "type": "function"
    },
    {
      "inputs": [
        {
          "internalType": "address",
          "name": "from",
          "type": "address"
        },
        {
          "internalType": "address",
          "name": "to",
          "type": "address"
        },
        {
          "internalType": "uint256",
          "name": "tokenId",
          "type": "uint256"
        }
      ],
      "name": "safeTransferFrom",
      "outputs": [],
      "stateMutability": "nonpayable",
      "type": "function"
    },
    {
      "inputs": [
        {
          "internalType": "address",
          "name": "from",
          "type": "address"
        },
        {
          "internalType": "address",
          "name": "to",
          "type": "address"
        },
        {
          "internalType": "uint256",
          "name": "tokenId",
          "type": "uint256"
        },
        {
          "internalType": "bytes",
          "name": "_data",
          "type": "bytes"
        }
      ],
      "name": "safeTransferFrom",
      "outputs": [],
      "stateMutability": "nonpayable",
      "type": "function"
    },
    {
      "inputs": [
        {
          "internalType": "address",
          "name": "operator",
          "type": "address"
        },
        {
          "internalType": "bool",
          "name": "approved",
          "type": "bool"
        }
      ],
      "name": "setApprovalForAll",
      "outputs": [],
      "stateMutability": "nonpayable",
      "type": "function"
    },
    {
      "inputs": [
        {
          "internalType": "bytes4",
          "name": "interfaceId",
          "type": "bytes4"
        }
      ],
      "name": "supportsInterface",
      "outputs": [
        {
          "internalType": "bool",
          "name": "",
          "type": "bool"
        }
      ],
      "stateMutability": "view",
      "type": "function"
    },
    {
      "inputs": [],
      "name": "symbol",
      "outputs": [
        {
          "internalType": "string",
          "name": "",
          "type": "string"
        }
      ],
      "stateMutability": "view",
      "type": "function"
    },
    {
      "inputs": [
        {
          "internalType": "uint256",
          "name": "tokenId",
          "type": "uint256"
        }
      ],
      "name": "tokenURI",
      "outputs": [
        {
          "internalType": "string",
          "name": "",
          "type": "string"
        }
      ],
      "stateMutability": "view",
      "type": "function"
    },
    {
      "inputs": [
        {
          "internalType": "address",
          "name": "from",
          "type": "address"
        },
        {
          "internalType": "address",
          "name": "to",
          "type": "address"
        },
        {
          "internalType": "uint256",
          "name": "tokenId",
          "type": "uint256"
        }
      ],
      "name": "transferFrom",
      "outputs": [],
      "stateMutability": "nonpayable",
      "type": "function"
    }
  ],
  "bytecode": "0x60806040523480156200001157600080fd5b50604080518082018252600881526726bca0b4b931373160c11b60208083019182528351808501909452600384526226a0a160e91b9084015281519192916200005d916000916200007c565b508051620000739060019060208401906200007c565b5050506200015f565b8280546200008a9062000122565b90600052602060002090601f016020900481019282620000ae5760008555620000f9565b82601f10620000c957805160ff1916838001178555620000f9565b82800160010185558215620000f9579182015b82811115620000f9578251825591602001919060010190620000dc565b50620001079291506200010b565b5090565b5b808211156200010757600081556001016200010c565b600181811c908216806200013757607f821691505b602082108114156200015957634e487b7160e01b600052602260045260246000fd5b50919050565b611df1806200016f6000396000f3fe6080604052600436106100e85760003560e01c8063629cb2e41161008a578063a22cb46511610059578063a22cb46514610276578063b88d4fde14610296578063c87b56dd146102b6578063e985e9c5146102d657600080fd5b8063629cb2e4146101ff5780636352211e1461022157806370a082311461024157806395d89b411461026157600080fd5b8063095ea7b3116100c6578063095ea7b31461017c57806323b872dd1461019e57806342842e0e146101be578063552dba4b146101de57600080fd5b806301ffc9a7146100ed57806306fdde0314610122578063081812fc14610144575b600080fd5b3480156100f957600080fd5b5061010d61010836600461189c565b61031f565b60405190151581526020015b60405180910390f35b34801561012e57600080fd5b50610137610371565b6040516101199190611ba3565b34801561015057600080fd5b5061016461015f3660046119b9565b610403565b6040516001600160a01b039091168152602001610119565b34801561018857600080fd5b5061019c610197366004611873565b610490565b005b3480156101aa57600080fd5b5061019c6101b9366004611785565b6105a6565b3480156101ca57600080fd5b5061019c6101d9366004611785565b6105d7565b6101f16101ec3660046118d4565b6105f2565b604051908152602001610119565b34801561020b57600080fd5b50610214610634565b6040516101199190611ada565b34801561022d57600080fd5b5061016461023c3660046119b9565b6108ca565b34801561024d57600080fd5b506101f161025c366004611739565b610941565b34801561026d57600080fd5b506101376109c8565b34801561028257600080fd5b5061019c610291366004611839565b6109d7565b3480156102a257600080fd5b5061019c6102b13660046117c0565b6109e6565b3480156102c257600080fd5b506101376102d13660046119b9565b610a1e565b3480156102e257600080fd5b5061010d6102f1366004611753565b6001600160a01b03918216600090815260056020908152604080832093909416825291909152205460ff1690565b60006001600160e01b031982166380ac58cd60e01b148061035057506001600160e01b03198216635b5e139f60e01b145b8061036b57506301ffc9a760e01b6001600160e01b03198316145b92915050565b60606000805461038090611cf9565b80601f01602080910402602001604051908101604052809291908181526020018280546103ac90611cf9565b80156103f95780601f106103ce576101008083540402835291602001916103f9565b820191906000526020600020905b8154815290600101906020018083116103dc57829003601f168201915b5050505050905090565b600061040e82610b95565b6104745760405162461bcd60e51b815260206004820152602c60248201527f4552433732313a20617070726f76656420717565727920666f72206e6f6e657860448201526b34b9ba32b73a103a37b5b2b760a11b60648201526084015b60405180910390fd5b506000908152600460205260409020546001600160a01b031690565b600061049b826108ca565b9050806001600160a01b0316836001600160a01b031614156105095760405162461bcd60e51b815260206004820152602160248201527f4552433732313a20617070726f76616c20746f2063757272656e74206f776e656044820152603960f91b606482015260840161046b565b336001600160a01b0382161480610525575061052581336102f1565b6105975760405162461bcd60e51b815260206004820152603860248201527f4552433732313a20617070726f76652063616c6c6572206973206e6f74206f7760448201527f6e6572206e6f7220617070726f76656420666f7220616c6c0000000000000000606482015260840161046b565b6105a18383610bb2565b505050565b6105b03382610c20565b6105cc5760405162461bcd60e51b815260040161046b90611c08565b6105a1838383610d09565b6105a1838383604051806020016040528060008152506109e6565b6000610602600780546001019055565b600061060d60075490565b90506106193382610ea5565b6106238185610ebf565b61062d8184610f4a565b9392505050565b6060600061064160075490565b905060008060005b838110156106a4573360096000610661846001611c8a565b81526020810191909152604001600020600101546001600160a01b031614156106925761068f600184611c8a565b92505b8061069c81611d34565b915050610649565b5060008267ffffffffffffffff8111156106ce57634e487b7160e01b600052604160045260246000fd5b60405190808252806020026020018201604052801561071b57816020015b604080516060808201835260008083526020830152918101919091528152602001906001900390816106ec5790505b50905060005b848110156108c1573360096000610739846001611c8a565b81526020810191909152604001600020600101546001600160a01b031614156108af576000610769826001611c8a565b600081815260096020908152604080832081516060810183528154815260018201546001600160a01b0316818501526002820180548451818702810187018652818152979850929691958795948701949293919284015b8282101561086c5783829060005260206000200180546107df90611cf9565b80601f016020809104026020016040519081016040528092919081815260200182805461080b90611cf9565b80156108585780601f1061082d57610100808354040283529160200191610858565b820191906000526020600020905b81548152906001019060200180831161083b57829003601f168201915b5050505050815260200190600101906107c0565b505050508152505084868151811061089457634e487b7160e01b600052603260045260246000fd5b60209081029190910101526108aa600186611c8a565b945050505b806108b981611d34565b915050610721565b50949350505050565b6000818152600260205260408120546001600160a01b03168061036b5760405162461bcd60e51b815260206004820152602960248201527f4552433732313a206f776e657220717565727920666f72206e6f6e657869737460448201526832b73a103a37b5b2b760b91b606482015260840161046b565b60006001600160a01b0382166109ac5760405162461bcd60e51b815260206004820152602a60248201527f4552433732313a2062616c616e636520717565727920666f7220746865207a65604482015269726f206164647265737360b01b606482015260840161046b565b506001600160a01b031660009081526003602052604090205490565b60606001805461038090611cf9565b6109e2338383610ff4565b5050565b6109f03383610c20565b610a0c5760405162461bcd60e51b815260040161046b90611c08565b610a18848484846110c3565b50505050565b6060610a2982610b95565b610a8f5760405162461bcd60e51b815260206004820152603160248201527f45524337323155524953746f726167653a2055524920717565727920666f72206044820152703737b732bc34b9ba32b73a103a37b5b2b760791b606482015260840161046b565b60008281526006602052604081208054610aa890611cf9565b80601f0160208091040260200160405190810160405280929190818152602001828054610ad490611cf9565b8015610b215780601f10610af657610100808354040283529160200191610b21565b820191906000526020600020905b815481529060010190602001808311610b0457829003601f168201915b505050505090506000610b3f60408051602081019091526000815290565b9050805160001415610b52575092915050565b815115610b84578082604051602001610b6c9291906119fd565b60405160208183030381529060405292505050919050565b610b8d846110f6565b949350505050565b6000908152600260205260409020546001600160a01b0316151590565b600081815260046020526040902080546001600160a01b0319166001600160a01b0384169081179091558190610be7826108ca565b6001600160a01b03167f8c5be1e5ebec7d5bd14f71427d1e84f3dd0314c0f7b2291e5b200ac8c7c3b92560405160405180910390a45050565b6000610c2b82610b95565b610c8c5760405162461bcd60e51b815260206004820152602c60248201527f4552433732313a206f70657261746f7220717565727920666f72206e6f6e657860448201526b34b9ba32b73a103a37b5b2b760a11b606482015260840161046b565b6000610c97836108ca565b9050806001600160a01b0316846001600160a01b03161480610cde57506001600160a01b0380821660009081526005602090815260408083209388168352929052205460ff165b80610b8d5750836001600160a01b0316610cf784610403565b6001600160a01b031614949350505050565b826001600160a01b0316610d1c826108ca565b6001600160a01b031614610d805760405162461bcd60e51b815260206004820152602560248201527f4552433732313a207472616e736665722066726f6d20696e636f72726563742060448201526437bbb732b960d91b606482015260840161046b565b6001600160a01b038216610de25760405162461bcd60e51b8152602060048201526024808201527f4552433732313a207472616e7366657220746f20746865207a65726f206164646044820152637265737360e01b606482015260840161046b565b610ded600082610bb2565b6001600160a01b0383166000908152600360205260408120805460019290610e16908490611cb6565b90915550506001600160a01b0382166000908152600360205260408120805460019290610e44908490611c8a565b909155505060008181526002602052604080822080546001600160a01b0319166001600160a01b0386811691821790925591518493918716917fddf252ad1be2c89b69c2b068fc378daa952ba7f163c4a11628f55a4df523b3ef91a4505050565b6109e28282604051806020016040528060008152506111cd565b610ec882610b95565b610f2b5760405162461bcd60e51b815260206004820152602e60248201527f45524337323155524953746f726167653a2055524920736574206f66206e6f6e60448201526d32bc34b9ba32b73a103a37b5b2b760911b606482015260840161046b565b600082815260066020908152604090912082516105a19284019061155a565b60408051606081018252838152306020808301918252828401858152600087815260098352949094208351815591516001830180546001600160a01b0319166001600160a01b039092169190911790559251805192939192610fb292600285019201906115de565b50905050817f69a7af98d04560935160b0d18f04c9759d031d6e359ce9c51a6212055c91b1073383604051610fe8929190611a69565b60405180910390a25050565b816001600160a01b0316836001600160a01b031614156110565760405162461bcd60e51b815260206004820152601960248201527f4552433732313a20617070726f766520746f2063616c6c657200000000000000604482015260640161046b565b6001600160a01b03838116600081815260056020908152604080832094871680845294825291829020805460ff191686151590811790915591519182527f17307eab39ab6107e8899845ad3d59bd9653f200f220920489ca2b5937696c31910160405180910390a3505050565b6110ce848484610d09565b6110da84848484611200565b610a185760405162461bcd60e51b815260040161046b90611bb6565b606061110182610b95565b6111655760405162461bcd60e51b815260206004820152602f60248201527f4552433732314d657461646174613a2055524920717565727920666f72206e6f60448201526e3732bc34b9ba32b73a103a37b5b2b760891b606482015260840161046b565b600061117c60408051602081019091526000815290565b9050600081511161119c576040518060200160405280600081525061062d565b806111a68461130d565b6040516020016111b79291906119fd565b6040516020818303038152906040529392505050565b6111d78383611427565b6111e46000848484611200565b6105a15760405162461bcd60e51b815260040161046b90611bb6565b60006001600160a01b0384163b1561130257604051630a85bd0160e11b81526001600160a01b0385169063150b7a0290611244903390899088908890600401611a2c565b602060405180830381600087803b15801561125e57600080fd5b505af192505050801561128e575060408051601f3d908101601f1916820190925261128b918101906118b8565b60015b6112e8573d8080156112bc576040519150601f19603f3d011682016040523d82523d6000602084013e6112c1565b606091505b5080516112e05760405162461bcd60e51b815260040161046b90611bb6565b805181602001fd5b6001600160e01b031916630a85bd0160e11b149050610b8d565b506001949350505050565b6060816113315750506040805180820190915260018152600360fc1b602082015290565b8160005b811561135b578061134581611d34565b91506113549050600a83611ca2565b9150611335565b60008167ffffffffffffffff81111561138457634e487b7160e01b600052604160045260246000fd5b6040519080825280601f01601f1916602001820160405280156113ae576020820181803683370190505b5090505b8415610b8d576113c3600183611cb6565b91506113d0600a86611d4f565b6113db906030611c8a565b60f81b8183815181106113fe57634e487b7160e01b600052603260045260246000fd5b60200101906001600160f81b031916908160001a905350611420600a86611ca2565b94506113b2565b6001600160a01b03821661147d5760405162461bcd60e51b815260206004820181905260248201527f4552433732313a206d696e7420746f20746865207a65726f2061646472657373604482015260640161046b565b61148681610b95565b156114d35760405162461bcd60e51b815260206004820152601c60248201527f4552433732313a20746f6b656e20616c7265616479206d696e74656400000000604482015260640161046b565b6001600160a01b03821660009081526003602052604081208054600192906114fc908490611c8a565b909155505060008181526002602052604080822080546001600160a01b0319166001600160a01b03861690811790915590518392907fddf252ad1be2c89b69c2b068fc378daa952ba7f163c4a11628f55a4df523b3ef908290a45050565b82805461156690611cf9565b90600052602060002090601f01602090048101928261158857600085556115ce565b82601f106115a157805160ff19168380011785556115ce565b828001600101855582156115ce579182015b828111156115ce5782518255916020019190600101906115b3565b506115da929150611637565b5090565b82805482825590600052602060002090810192821561162b579160200282015b8281111561162b578251805161161b91849160209091019061155a565b50916020019190600101906115fe565b506115da92915061164c565b5b808211156115da5760008155600101611638565b808211156115da5760006116608282611669565b5060010161164c565b50805461167590611cf9565b6000825580601f10611685575050565b601f0160209004906000526020600020908101906116a39190611637565b50565b600067ffffffffffffffff8311156116c0576116c0611d8f565b6116d3601f8401601f1916602001611c59565b90508281528383830111156116e757600080fd5b828260208301376000602084830101529392505050565b80356001600160a01b038116811461171557600080fd5b919050565b600082601f83011261172a578081fd5b61062d838335602085016116a6565b60006020828403121561174a578081fd5b61062d826116fe565b60008060408385031215611765578081fd5b61176e836116fe565b915061177c602084016116fe565b90509250929050565b600080600060608486031215611799578081fd5b6117a2846116fe565b92506117b0602085016116fe565b9150604084013590509250925092565b600080600080608085870312156117d5578081fd5b6117de856116fe565b93506117ec602086016116fe565b925060408501359150606085013567ffffffffffffffff81111561180e578182fd5b8501601f8101871361181e578182fd5b61182d878235602084016116a6565b91505092959194509250565b6000806040838503121561184b578182fd5b611854836116fe565b915060208301358015158114611868578182fd5b809150509250929050565b60008060408385031215611885578182fd5b61188e836116fe565b946020939093013593505050565b6000602082840312156118ad578081fd5b813561062d81611da5565b6000602082840312156118c9578081fd5b815161062d81611da5565b600080604083850312156118e6578182fd5b823567ffffffffffffffff808211156118fd578384fd5b6119098683870161171a565b935060209150818501358181111561191f578384fd5b8501601f8101871361192f578384fd5b80358281111561194157611941611d8f565b8060051b611950858201611c59565b8281528581019084870183860188018c101561196a578889fd5b8893505b848410156119a75780358781111561198457898afd5b6119928d8a838a010161171a565b8452506001939093019291870191870161196e565b50809750505050505050509250929050565b6000602082840312156119ca578081fd5b5035919050565b600081518084526119e9816020860160208601611ccd565b601f01601f19169290920160200192915050565b60008351611a0f818460208801611ccd565b835190830190611a23818360208801611ccd565b01949350505050565b6001600160a01b0385811682528416602082015260408101839052608060608201819052600090611a5f908301846119d1565b9695505050505050565b60006040820160018060a01b0385168352602060408185015281855180845260608601915060608160051b8701019350828701855b82811015611acc57605f19888703018452611aba8683516119d1565b95509284019290840190600101611a9e565b509398975050505050505050565b602080825282518282018190526000919060409081850190600581811b87018401888601875b84811015611b9457898303603f19018652815180518452888101516001600160a01b031689850152870151606088850181905281519085018190529089019060808086019180881b8701909101908c5b81811015611b7e57607f19888403018452611b6c8386516119d1565b948d0194938d01939250600101611b50565b5050978a01979450505090870190600101611b00565b50909998505050505050505050565b60208152600061062d60208301846119d1565b60208082526032908201527f4552433732313a207472616e7366657220746f206e6f6e20455243373231526560408201527131b2b4bb32b91034b6b83632b6b2b73a32b960711b606082015260800190565b60208082526031908201527f4552433732313a207472616e736665722063616c6c6572206973206e6f74206f6040820152701ddb995c881b9bdc88185c1c1c9bdd9959607a1b606082015260800190565b604051601f8201601f1916810167ffffffffffffffff81118282101715611c8257611c82611d8f565b604052919050565b60008219821115611c9d57611c9d611d63565b500190565b600082611cb157611cb1611d79565b500490565b600082821015611cc857611cc8611d63565b500390565b60005b83811015611ce8578181015183820152602001611cd0565b83811115610a185750506000910152565b600181811c90821680611d0d57607f821691505b60208210811415611d2e57634e487b7160e01b600052602260045260246000fd5b50919050565b6000600019821415611d4857611d48611d63565b5060010190565b600082611d5e57611d5e611d79565b500690565b634e487b7160e01b600052601160045260246000fd5b634e487b7160e01b600052601260045260246000fd5b634e487b7160e01b600052604160045260246000fd5b6001600160e01b0319811681146116a357600080fdfea2646970667358221220ed08ea7ff00d812a371465e582b1172cc9e25ba0e7207078e4f9d9e3f175ec3964736f6c63430008040033",
  "linkReferences": {},
  "deployedLinkReferences": {}
}