{
  "_format": "hh-sol-artifact-1",
  "contractName": "Airbnb",
  "sourceName": "contracts/Airbnb.sol",
  "abi": [
    {
      "inputs": [],
      "stateMutability": "nonpayable",
      "type": "constructor"
    },
    {
      "anonymous": false,
      "inputs": [
        {
          "indexed": true,
          "internalType": "address",
          "name": "owner",
          "type": "address"
        },
        {
          "indexed": true,
          "internalType": "address",
          "name": "approved",
          "type": "address"
        },
        {
          "indexed": true,
          "internalType": "uint256",
          "name": "tokenId",
          "type": "uint256"
        }
      ],
      "name": "Approval",
      "type": "event"
    },
    {
      "anonymous": false,
      "inputs": [
        {
          "indexed": true,
          "internalType": "address",
          "name": "owner",
          "type": "address"
        },
        {
          "indexed": true,
          "internalType": "address",
          "name": "operator",
          "type": "address"
        },
        {
          "indexed": false,
          "internalType": "bool",
          "name": "approved",
          "type": "bool"
        }
      ],
      "name": "ApprovalForAll",
      "type": "event"
    },
    {
      "anonymous": false,
      "inputs": [
        {
          "indexed": true,
          "internalType": "uint256",
          "name": "tokenId",
          "type": "uint256"
        },
        {
          "indexed": false,
          "internalType": "address",
          "name": "owner",
          "type": "address"
        },
        {
          "indexed": false,
          "internalType": "string[]",
          "name": "datesBooked",
          "type": "string[]"
        }
      ],
      "name": "TokenListedSuccess",
      "type": "event"
    },
    {
      "anonymous": false,
      "inputs": [
        {
          "indexed": true,
          "internalType": "address",
          "name": "from",
          "type": "address"
        },
        {
          "indexed": true,
          "internalType": "address",
          "name": "to",
          "type": "address"
        },
        {
          "indexed": true,
          "internalType": "uint256",
          "name": "tokenId",
          "type": "uint256"
        }
      ],
      "name": "Transfer",
      "type": "event"
    },
    {
      "anonymous": false,
      "inputs": [
        {
          "indexed": false,
          "internalType": "string[]",
          "name": "datesBooked",
          "type": "string[]"
        },
        {
          "indexed": false,
          "internalType": "uint256",
          "name": "id",
          "type": "uint256"
        },
        {
          "indexed": false,
          "internalType": "address",
          "name": "booker",
          "type": "address"
        },
        {
          "indexed": false,
          "internalType": "string",
          "name": "city",
          "type": "string"
        },
        {
          "indexed": false,
          "internalType": "string",
          "name": "imgUrl",
          "type": "string"
        }
      ],
      "name": "newDatesBooked",
      "type": "event"
    },
    {
      "anonymous": false,
      "inputs": [
        {
          "indexed": false,
          "internalType": "string",
          "name": "name",
          "type": "string"
        },
        {
          "indexed": false,
          "internalType": "string",
          "name": "city",
          "type": "string"
        },
        {
          "indexed": false,
          "internalType": "string",
          "name": "lat",
          "type": "string"
        },
        {
          "indexed": false,
          "internalType": "string",
          "name": "long",
          "type": "string"
        },
        {
          "indexed": false,
          "internalType": "string",
          "name": "unoDescription",
          "type": "string"
        },
        {
          "indexed": false,
          "internalType": "string",
          "name": "dosDescription",
          "type": "string"
        },
        {
          "indexed": false,
          "internalType": "string",
          "name": "imgUrl",
          "type": "string"
        },
        {
          "indexed": false,
          "internalType": "uint256",
          "name": "maxGuests",
          "type": "uint256"
        },
        {
          "indexed": false,
          "internalType": "uint256",
          "name": "pricePerDay",
          "type": "uint256"
        },
        {
          "indexed": false,
          "internalType": "string[]",
          "name": "datesBooked",
          "type": "string[]"
        },
        {
          "indexed": false,
          "internalType": "uint256",
          "name": "id",
          "type": "uint256"
        },
        {
          "indexed": false,
          "internalType": "address",
          "name": "renter",
          "type": "address"
        }
      ],
      "name": "rentalCreated",
      "type": "event"
    },
    {
      "inputs": [
        {
          "internalType": "uint256",
          "name": "id",
          "type": "uint256"
        },
        {
          "internalType": "string[]",
          "name": "newBookings",
          "type": "string[]"
        }
      ],
      "name": "addDatesBooked",
      "outputs": [],
      "stateMutability": "payable",
      "type": "function"
    },
    {
      "inputs": [
        {
          "internalType": "string",
          "name": "name",
          "type": "string"
        },
        {
          "internalType": "string",
          "name": "city",
          "type": "string"
        },
        {
          "internalType": "string",
          "name": "lat",
          "type": "string"
        },
        {
          "internalType": "string",
          "name": "long",
          "type": "string"
        },
        {
          "internalType": "string",
          "name": "unoDescription",
          "type": "string"
        },
        {
          "internalType": "string",
          "name": "dosDescription",
          "type": "string"
        },
        {
          "internalType": "string",
          "name": "imgUrl",
          "type": "string"
        },
        {
          "internalType": "uint256",
          "name": "maxGuests",
          "type": "uint256"
        },
        {
          "internalType": "uint256",
          "name": "pricePerDay",
          "type": "uint256"
        },
        {
          "internalType": "string[]",
          "name": "datesBooked",
          "type": "string[]"
        }
      ],
      "name": "addRentals",
      "outputs": [],
      "stateMutability": "nonpayable",
      "type": "function"
    },
    {
      "inputs": [
        {
          "internalType": "address",
          "name": "to",
          "type": "address"
        },
        {
          "internalType": "uint256",
          "name": "tokenId",
          "type": "uint256"
        }
      ],
      "name": "approve",
      "outputs": [],
      "stateMutability": "nonpayable",
      "type": "function"
    },
    {
      "inputs": [
        {
          "internalType": "address",
          "name": "owner",
          "type": "address"
        }
      ],
      "name": "balanceOf",
      "outputs": [
        {
          "internalType": "uint256",
          "name": "",
          "type": "uint256"
        }
      ],
      "stateMutability": "view",
      "type": "function"
    },
    {
      "inputs": [
        {
          "internalType": "string",
          "name": "tokenURI",
          "type": "string"
        },
        {
          "internalType": "string[]",
          "name": "newBookings",
          "type": "string[]"
        }
      ],
      "name": "createToken",
      "outputs": [
        {
          "internalType": "uint256",
          "name": "",
          "type": "uint256"
        }
      ],
      "stateMutability": "payable",
      "type": "function"
    },
    {
      "inputs": [
        {
          "internalType": "uint256",
          "name": "tokenId",
          "type": "uint256"
        }
      ],
      "name": "getApproved",
      "outputs": [
        {
          "internalType": "address",
          "name": "",
          "type": "address"
        }
      ],
      "stateMutability": "view",
      "type": "function"
    },
    {
      "inputs": [],
      "name": "getMyNFTs",
      "outputs": [
        {
          "components": [
            {
              "internalType": "uint256",
              "name": "tokenId",
              "type": "uint256"
            },
            {
              "internalType": "address",
              "name": "owner",
              "type": "address"
            },
            {
              "internalType": "string[]",
              "name": "datesBooked",
              "type": "string[]"
            }
          ],
          "internalType": "struct AirbnbNFT.ListedToken[]",
          "name": "",
          "type": "tuple[]"
        }
      ],
      "stateMutability": "view",
      "type": "function"
    },
    {
      "inputs": [
        {
          "internalType": "uint256",
          "name": "id",
          "type": "uint256"
        }
      ],
      "name": "getRental",
      "outputs": [
        {
          "internalType": "string",
          "name": "",
          "type": "string"
        },
        {
          "internalType": "uint256",
          "name": "",
          "type": "uint256"
        },
        {
          "internalType": "string[]",
          "name": "",
          "type": "string[]"
        }
      ],
      "stateMutability": "view",
      "type": "function"
    },
    {
      "inputs": [
        {
          "internalType": "address",
          "name": "owner",
          "type": "address"
        },
        {
          "internalType": "address",
          "name": "operator",
          "type": "address"
        }
      ],
      "name": "isApprovedForAll",
      "outputs": [
        {
          "internalType": "bool",
          "name": "",
          "type": "bool"
        }
      ],
      "stateMutability": "view",
      "type": "function"
    },
    {
      "inputs": [],
      "name": "name",
      "outputs": [
        {
          "internalType": "string",
          "name": "",
          "type": "string"
        }
      ],
      "stateMutability": "view",
      "type": "function"
    },
    {
      "inputs": [],
      "name": "owner",
      "outputs": [
        {
          "internalType": "address payable",
          "name": "",
          "type": "address"
        }
      ],
      "stateMutability": "view",
      "type": "function"
    },
    {
      "inputs": [
        {
          "internalType": "uint256",
          "name": "tokenId",
          "type": "uint256"
        }
      ],
      "name": "ownerOf",
      "outputs": [
        {
          "internalType": "address",
          "name": "",
          "type": "address"
        }
      ],
      "stateMutability": "view",
      "type": "function"
    },
    {
      "inputs": [
        {
          "internalType": "uint256",
          "name": "",
          "type": "uint256"
        }
      ],
      "name": "retnalIds",
      "outputs": [
        {
          "internalType": "uint256",
          "name": "",
          "type": "uint256"
        }
      ],
      "stateMutability": "view",
      "type": "function"
    },
    {
      "inputs": [
        {
          "internalType": "address",
          "name": "from",
          "type": "address"
        },
        {
          "internalType": "address",
          "name": "to",
          "type": "address"
        },
        {
          "internalType": "uint256",
          "name": "tokenId",
          "type": "uint256"
        }
      ],
      "name": "safeTransferFrom",
      "outputs": [],
      "stateMutability": "nonpayable",
      "type": "function"
    },
    {
      "inputs": [
        {
          "internalType": "address",
          "name": "from",
          "type": "address"
        },
        {
          "internalType": "address",
          "name": "to",
          "type": "address"
        },
        {
          "internalType": "uint256",
          "name": "tokenId",
          "type": "uint256"
        },
        {
          "internalType": "bytes",
          "name": "_data",
          "type": "bytes"
        }
      ],
      "name": "safeTransferFrom",
      "outputs": [],
      "stateMutability": "nonpayable",
      "type": "function"
    },
    {
      "inputs": [
        {
          "internalType": "address",
          "name": "operator",
          "type": "address"
        },
        {
          "internalType": "bool",
          "name": "approved",
          "type": "bool"
        }
      ],
      "name": "setApprovalForAll",
      "outputs": [],
      "stateMutability": "nonpayable",
      "type": "function"
    },
    {
      "inputs": [
        {
          "internalType": "bytes4",
          "name": "interfaceId",
          "type": "bytes4"
        }
      ],
      "name": "supportsInterface",
      "outputs": [
        {
          "internalType": "bool",
          "name": "",
          "type": "bool"
        }
      ],
      "stateMutability": "view",
      "type": "function"
    },
    {
      "inputs": [],
      "name": "symbol",
      "outputs": [
        {
          "internalType": "string",
          "name": "",
          "type": "string"
        }
      ],
      "stateMutability": "view",
      "type": "function"
    },
    {
      "inputs": [
        {
          "internalType": "uint256",
          "name": "tokenId",
          "type": "uint256"
        }
      ],
      "name": "tokenURI",
      "outputs": [
        {
          "internalType": "string",
          "name": "",
          "type": "string"
        }
      ],
      "stateMutability": "view",
      "type": "function"
    },
    {
      "inputs": [
        {
          "internalType": "address",
          "name": "from",
          "type": "address"
        },
        {
          "internalType": "address",
          "name": "to",
          "type": "address"
        },
        {
          "internalType": "uint256",
          "name": "tokenId",
          "type": "uint256"
        }
      ],
      "name": "transferFrom",
      "outputs": [],
      "stateMutability": "nonpayable",
      "type": "function"
    }
  ],
  "bytecode": "0x60806040523480156200001157600080fd5b50604080518082018252600881526726bca0b4b931373160c11b60208083019182528351808501909452600384526226a0a160e91b9084015281519192916200005d9160009162000093565b5080516200007390600190602084019062000093565b50506000600b5550600a80546001600160a01b0319163317905562000176565b828054620000a19062000139565b90600052602060002090601f016020900481019282620000c5576000855562000110565b82601f10620000e057805160ff191683800117855562000110565b8280016001018555821562000110579182015b8281111562000110578251825591602001919060010190620000f3565b506200011e92915062000122565b5090565b5b808211156200011e576000815560010162000123565b600181811c908216806200014e57607f821691505b602082108114156200017057634e487b7160e01b600052602260045260246000fd5b50919050565b612ad380620001866000396000f3fe60806040526004361061011f5760003560e01c8063652bd29e116100a0578063a22cb46511610064578063a22cb4651461032f578063b88d4fde1461034f578063c87b56dd1461036f578063deb38e791461038f578063e985e9c5146103af57600080fd5b8063652bd29e1461028b57806370a08231146102ba57806382eea332146102da5780638da5cb5b146102fa57806395d89b411461031a57600080fd5b80632a23bb72116100e75780632a23bb72146101f557806342842e0e14610208578063552dba4b14610228578063629cb2e4146102495780636352211e1461026b57600080fd5b806301ffc9a71461012457806306fdde0314610159578063081812fc1461017b578063095ea7b3146101b357806323b872dd146101d5575b600080fd5b34801561013057600080fd5b5061014461013f3660046121ef565b6103f8565b60405190151581526020015b60405180910390f35b34801561016557600080fd5b5061016e61044a565b604051610150919061275d565b34801561018757600080fd5b5061019b6101963660046123d4565b6104dc565b6040516001600160a01b039091168152602001610150565b3480156101bf57600080fd5b506101d36101ce3660046121c6565b610569565b005b3480156101e157600080fd5b506101d36101f03660046120d8565b61067f565b6101d36102033660046123ec565b6106b0565b34801561021457600080fd5b506101d36102233660046120d8565b610945565b61023b610236366004612227565b610960565b604051908152602001610150565b34801561025557600080fd5b5061025e6109a2565b6040516101509190612694565b34801561027757600080fd5b5061019b6102863660046123d4565b610c38565b34801561029757600080fd5b506102ab6102a63660046123d4565b610caf565b6040516101509392919061284e565b3480156102c657600080fd5b5061023b6102d536600461208c565b610e80565b3480156102e657600080fd5b5061023b6102f53660046123d4565b610f07565b34801561030657600080fd5b50600a5461019b906001600160a01b031681565b34801561032657600080fd5b5061016e610f28565b34801561033b57600080fd5b506101d361034a36600461218c565b610f37565b34801561035b57600080fd5b506101d361036a366004612113565b610f46565b34801561037b57600080fd5b5061016e61038a3660046123d4565b610f7e565b34801561039b57600080fd5b506101d36103aa366004612288565b6110f5565b3480156103bb57600080fd5b506101446103ca3660046120a6565b6001600160a01b03918216600090815260056020908152604080832093909416825291909152205460ff1690565b60006001600160e01b031982166380ac58cd60e01b148061042957506001600160e01b03198216635b5e139f60e01b145b8061044457506301ffc9a760e01b6001600160e01b03198316145b92915050565b606060008054610459906129db565b80601f0160208091040260200160405190810160405280929190818152602001828054610485906129db565b80156104d25780601f106104a7576101008083540402835291602001916104d2565b820191906000526020600020905b8154815290600101906020018083116104b557829003601f168201915b5050505050905090565b60006104e782611330565b61054d5760405162461bcd60e51b815260206004820152602c60248201527f4552433732313a20617070726f76656420717565727920666f72206e6f6e657860448201526b34b9ba32b73a103a37b5b2b760a11b60648201526084015b60405180910390fd5b506000908152600460205260409020546001600160a01b031690565b600061057482610c38565b9050806001600160a01b0316836001600160a01b031614156105e25760405162461bcd60e51b815260206004820152602160248201527f4552433732313a20617070726f76616c20746f2063757272656e74206f776e656044820152603960f91b6064820152608401610544565b336001600160a01b03821614806105fe57506105fe81336103ca565b6106705760405162461bcd60e51b815260206004820152603860248201527f4552433732313a20617070726f76652063616c6c6572206973206e6f74206f7760448201527f6e6572206e6f7220617070726f76656420666f7220616c6c00000000000000006064820152608401610544565b61067a838361134d565b505050565b61068933826113bb565b6106a55760405162461bcd60e51b8152600401610544906128cb565b61067a8383836114a4565b600b5482106106f25760405162461bcd60e51b815260206004820152600e60248201526d139bc81cdd58da0814995b9d185b60921b6044820152606401610544565b6106fc8282611640565b6107485760405162461bcd60e51b815260206004820152601f60248201527f416c726561647920426f6f6b656420466f7220526571756573742044617465006044820152606401610544565b80516000838152600c602052604090206008015461076e90670de0b6b3a7640000612979565b6107789190612979565b341461078357600080fd5b60005b815181101561080a57600c60008481526020019081526020016000206009018282815181106107c557634e487b7160e01b600052603260045260246000fd5b602090810291909101810151825460018101845560009384529282902081516107f79491909101929190910190611e0d565b508061080281612a16565b915050610786565b50600a546040516001600160a01b03909116903480156108fc02916000818181858888f19350505050158015610844573d6000803e3d6000fd5b506000828152600c6020526040902060060180546108ea9190610866906129db565b80601f0160208091040260200160405190810160405280929190818152602001828054610892906129db565b80156108df5780601f106108b4576101008083540402835291602001916108df565b820191906000526020600020905b8154815290600101906020018083116108c257829003601f168201915b505050505082610960565b506000828152600c60205260409081902090517fdfcc683ac35013d595a2db07bcb6601a1bbc6c91dad13117fd60299c875c61b491610939918491869133916001810191600690910190612639565b60405180910390a15050565b61067a83838360405180602001604052806000815250610f46565b6000610970600780546001019055565b600061097b60075490565b90506109873382611758565b6109918185611772565b61099b81846117fd565b9392505050565b606060006109af60075490565b905060008060005b83811015610a125733600960006109cf84600161294d565b81526020810191909152604001600020600101546001600160a01b03161415610a00576109fd60018461294d565b92505b80610a0a81612a16565b9150506109b7565b5060008267ffffffffffffffff811115610a3c57634e487b7160e01b600052604160045260246000fd5b604051908082528060200260200182016040528015610a8957816020015b60408051606080820183526000808352602083015291810191909152815260200190600190039081610a5a5790505b50905060005b84811015610c2f573360096000610aa784600161294d565b81526020810191909152604001600020600101546001600160a01b03161415610c1d576000610ad782600161294d565b600081815260096020908152604080832081516060810183528154815260018201546001600160a01b0316818501526002820180548451818702810187018652818152979850929691958795948701949293919284015b82821015610bda578382906000526020600020018054610b4d906129db565b80601f0160208091040260200160405190810160405280929190818152602001828054610b79906129db565b8015610bc65780601f10610b9b57610100808354040283529160200191610bc6565b820191906000526020600020905b815481529060010190602001808311610ba957829003601f168201915b505050505081526020019060010190610b2e565b5050505081525050848681518110610c0257634e487b7160e01b600052603260045260246000fd5b6020908102919091010152610c1860018661294d565b945050505b80610c2781612a16565b915050610a8f565b50949350505050565b6000818152600260205260408120546001600160a01b0316806104445760405162461bcd60e51b815260206004820152602960248201527f4552433732313a206f776e657220717565727920666f72206e6f6e657869737460448201526832b73a103a37b5b2b760b91b6064820152608401610544565b606060006060600b548410610cf75760405162461bcd60e51b815260206004820152600e60248201526d139bc81cdd58da0814995b9d185b60921b6044820152606401610544565b6000848152600c602052604090206008810154815482919060098301908390610d1f906129db565b80601f0160208091040260200160405190810160405280929190818152602001828054610d4b906129db565b8015610d985780601f10610d6d57610100808354040283529160200191610d98565b820191906000526020600020905b815481529060010190602001808311610d7b57829003601f168201915b5050505050925080805480602002602001604051908101604052809291908181526020016000905b82821015610e6c578382906000526020600020018054610ddf906129db565b80601f0160208091040260200160405190810160405280929190818152602001828054610e0b906129db565b8015610e585780601f10610e2d57610100808354040283529160200191610e58565b820191906000526020600020905b815481529060010190602001808311610e3b57829003601f168201915b505050505081526020019060010190610dc0565b505050509050935093509350509193909250565b60006001600160a01b038216610eeb5760405162461bcd60e51b815260206004820152602a60248201527f4552433732313a2062616c616e636520717565727920666f7220746865207a65604482015269726f206164647265737360b01b6064820152608401610544565b506001600160a01b031660009081526003602052604090205490565b600d8181548110610f1757600080fd5b600091825260209091200154905081565b606060018054610459906129db565b610f423383836118a7565b5050565b610f5033836113bb565b610f6c5760405162461bcd60e51b8152600401610544906128cb565b610f7884848484611976565b50505050565b6060610f8982611330565b610fef5760405162461bcd60e51b815260206004820152603160248201527f45524337323155524953746f726167653a2055524920717565727920666f72206044820152703737b732bc34b9ba32b73a103a37b5b2b760791b6064820152608401610544565b60008281526006602052604081208054611008906129db565b80601f0160208091040260200160405190810160405280929190818152602001828054611034906129db565b80156110815780601f1061105657610100808354040283529160200191611081565b820191906000526020600020905b81548152906001019060200180831161106457829003601f168201915b50505050509050600061109f60408051602081019091526000815290565b90508051600014156110b2575092915050565b8151156110e45780826040516020016110cc92919061253a565b60405160208183030381529060405292505050919050565b6110ed846119a9565b949350505050565b600a546001600160a01b031633146111675760405162461bcd60e51b815260206004820152602f60248201527f4f6e6c79206f776e6572206f6620736d61727420636f6e74726163742063616e60448201526e207075742075702072656e74616c7360881b6064820152608401610544565b600b546000908152600c602090815260409091208b51909161118d9183918e0190611e0d565b5089516111a390600183019060208d0190611e0d565b5088516111b990600283019060208c0190611e0d565b5087516111cf90600383019060208b0190611e0d565b5086516111e590600483019060208a0190611e0d565b5085516111fb9060058301906020890190611e0d565b5084516112119060068301906020880190611e0d565b50600781018490556008810183905581516112359060098301906020850190611e91565b50600b5481600a0181905550600a60009054906101000a90046001600160a01b031681600b0160006101000a8154816001600160a01b0302191690836001600160a01b03160217905550600d600b5490806001815401808255809150506001900390600052602060002001600090919091909150557fc06f078c3c74d235829af3e011ff5aae487c78ef8d3acca688417ed86ff145918b8b8b8b8b8b8b8b8b8b600b54600a60009054906101000a90046001600160a01b03166040516113069c9b9a99989796959493929190612770565b60405180910390a1600b805490600061131e83612a16565b91905055505050505050505050505050565b6000908152600260205260409020546001600160a01b0316151590565b600081815260046020526040902080546001600160a01b0319166001600160a01b038416908117909155819061138282610c38565b6001600160a01b03167f8c5be1e5ebec7d5bd14f71427d1e84f3dd0314c0f7b2291e5b200ac8c7c3b92560405160405180910390a45050565b60006113c682611330565b6114275760405162461bcd60e51b815260206004820152602c60248201527f4552433732313a206f70657261746f7220717565727920666f72206e6f6e657860448201526b34b9ba32b73a103a37b5b2b760a11b6064820152608401610544565b600061143283610c38565b9050806001600160a01b0316846001600160a01b0316148061147957506001600160a01b0380821660009081526005602090815260408083209388168352929052205460ff165b806110ed5750836001600160a01b0316611492846104dc565b6001600160a01b031614949350505050565b826001600160a01b03166114b782610c38565b6001600160a01b03161461151b5760405162461bcd60e51b815260206004820152602560248201527f4552433732313a207472616e736665722066726f6d20696e636f72726563742060448201526437bbb732b960d91b6064820152608401610544565b6001600160a01b03821661157d5760405162461bcd60e51b8152602060048201526024808201527f4552433732313a207472616e7366657220746f20746865207a65726f206164646044820152637265737360e01b6064820152608401610544565b61158860008261134d565b6001600160a01b03831660009081526003602052604081208054600192906115b1908490612998565b90915550506001600160a01b03821660009081526003602052604081208054600192906115df90849061294d565b909155505060008181526002602052604080822080546001600160a01b0319166001600160a01b0386811691821790925591518493918716917fddf252ad1be2c89b69c2b068fc378daa952ba7f163c4a11628f55a4df523b3ef91a4505050565b6000805b825181101561174e5760005b6000858152600c602052604090206009015481101561173b5783828151811061168957634e487b7160e01b600052603260045260246000fd5b60200260200101516040516020016116a1919061251e565b60408051601f1981840301815291815281516020928301206000888152600c90935291206009018054839081106116e857634e487b7160e01b600052603260045260246000fd5b906000526020600020016040516020016117029190612569565b60405160208183030381529060405280519060200120141561172957600092505050610444565b8061173381612a16565b915050611650565b508061174681612a16565b915050611644565b5060019392505050565b610f42828260405180602001604052806000815250611a80565b61177b82611330565b6117de5760405162461bcd60e51b815260206004820152602e60248201527f45524337323155524953746f726167653a2055524920736574206f66206e6f6e60448201526d32bc34b9ba32b73a103a37b5b2b760911b6064820152608401610544565b6000828152600660209081526040909120825161067a92840190611e0d565b60408051606081018252838152306020808301918252828401858152600087815260098352949094208351815591516001830180546001600160a01b0319166001600160a01b0390921691909117905592518051929391926118659260028501920190611e91565b50905050817f69a7af98d04560935160b0d18f04c9759d031d6e359ce9c51a6212055c91b107338360405161189b929190612615565b60405180910390a25050565b816001600160a01b0316836001600160a01b031614156119095760405162461bcd60e51b815260206004820152601960248201527f4552433732313a20617070726f766520746f2063616c6c6572000000000000006044820152606401610544565b6001600160a01b03838116600081815260056020908152604080832094871680845294825291829020805460ff191686151590811790915591519182527f17307eab39ab6107e8899845ad3d59bd9653f200f220920489ca2b5937696c31910160405180910390a3505050565b6119818484846114a4565b61198d84848484611ab3565b610f785760405162461bcd60e51b815260040161054490612879565b60606119b482611330565b611a185760405162461bcd60e51b815260206004820152602f60248201527f4552433732314d657461646174613a2055524920717565727920666f72206e6f60448201526e3732bc34b9ba32b73a103a37b5b2b760891b6064820152608401610544565b6000611a2f60408051602081019091526000815290565b90506000815111611a4f576040518060200160405280600081525061099b565b80611a5984611bc0565b604051602001611a6a92919061253a565b6040516020818303038152906040529392505050565b611a8a8383611cda565b611a976000848484611ab3565b61067a5760405162461bcd60e51b815260040161054490612879565b60006001600160a01b0384163b15611bb557604051630a85bd0160e11b81526001600160a01b0385169063150b7a0290611af79033908990889088906004016125d8565b602060405180830381600087803b158015611b1157600080fd5b505af1925050508015611b41575060408051601f3d908101601f19168201909252611b3e9181019061220b565b60015b611b9b573d808015611b6f576040519150601f19603f3d011682016040523d82523d6000602084013e611b74565b606091505b508051611b935760405162461bcd60e51b815260040161054490612879565b805181602001fd5b6001600160e01b031916630a85bd0160e11b1490506110ed565b506001949350505050565b606081611be45750506040805180820190915260018152600360fc1b602082015290565b8160005b8115611c0e5780611bf881612a16565b9150611c079050600a83612965565b9150611be8565b60008167ffffffffffffffff811115611c3757634e487b7160e01b600052604160045260246000fd5b6040519080825280601f01601f191660200182016040528015611c61576020820181803683370190505b5090505b84156110ed57611c76600183612998565b9150611c83600a86612a31565b611c8e90603061294d565b60f81b818381518110611cb157634e487b7160e01b600052603260045260246000fd5b60200101906001600160f81b031916908160001a905350611cd3600a86612965565b9450611c65565b6001600160a01b038216611d305760405162461bcd60e51b815260206004820181905260248201527f4552433732313a206d696e7420746f20746865207a65726f20616464726573736044820152606401610544565b611d3981611330565b15611d865760405162461bcd60e51b815260206004820152601c60248201527f4552433732313a20746f6b656e20616c7265616479206d696e746564000000006044820152606401610544565b6001600160a01b0382166000908152600360205260408120805460019290611daf90849061294d565b909155505060008181526002602052604080822080546001600160a01b0319166001600160a01b03861690811790915590518392907fddf252ad1be2c89b69c2b068fc378daa952ba7f163c4a11628f55a4df523b3ef908290a45050565b828054611e19906129db565b90600052602060002090601f016020900481019282611e3b5760008555611e81565b82601f10611e5457805160ff1916838001178555611e81565b82800160010185558215611e81579182015b82811115611e81578251825591602001919060010190611e66565b50611e8d929150611eea565b5090565b828054828255906000526020600020908101928215611ede579160200282015b82811115611ede5782518051611ece918491602090910190611e0d565b5091602001919060010190611eb1565b50611e8d929150611eff565b5b80821115611e8d5760008155600101611eeb565b80821115611e8d576000611f138282611f1c565b50600101611eff565b508054611f28906129db565b6000825580601f10611f38575050565b601f016020900490600052602060002090810190611f569190611eea565b50565b600067ffffffffffffffff831115611f7357611f73612a71565b611f86601f8401601f191660200161291c565b9050828152838383011115611f9a57600080fd5b828260208301376000602084830101529392505050565b80356001600160a01b0381168114611fc857600080fd5b919050565b600082601f830112611fdd578081fd5b8135602067ffffffffffffffff80831115611ffa57611ffa612a71565b8260051b61200983820161291c565b8481528381019087850183890186018a1015612023578788fd5b8793505b868410156120605780358581111561203d578889fd5b61204b8b88838d010161206d565b84525060019390930192918501918501612027565b5098975050505050505050565b600082601f83011261207d578081fd5b61099b83833560208501611f59565b60006020828403121561209d578081fd5b61099b82611fb1565b600080604083850312156120b8578081fd5b6120c183611fb1565b91506120cf60208401611fb1565b90509250929050565b6000806000606084860312156120ec578081fd5b6120f584611fb1565b925061210360208501611fb1565b9150604084013590509250925092565b60008060008060808587031215612128578081fd5b61213185611fb1565b935061213f60208601611fb1565b925060408501359150606085013567ffffffffffffffff811115612161578182fd5b8501601f81018713612171578182fd5b61218087823560208401611f59565b91505092959194509250565b6000806040838503121561219e578182fd5b6121a783611fb1565b9150602083013580151581146121bb578182fd5b809150509250929050565b600080604083850312156121d8578182fd5b6121e183611fb1565b946020939093013593505050565b600060208284031215612200578081fd5b813561099b81612a87565b60006020828403121561221c578081fd5b815161099b81612a87565b60008060408385031215612239578182fd5b823567ffffffffffffffff80821115612250578384fd5b61225c8683870161206d565b93506020850135915080821115612271578283fd5b5061227e85828601611fcd565b9150509250929050565b6000806000806000806000806000806101408b8d0312156122a7578586fd5b8a3567ffffffffffffffff808211156122be578788fd5b6122ca8e838f0161206d565b9b5060208d01359150808211156122df578788fd5b6122eb8e838f0161206d565b9a5060408d0135915080821115612300578788fd5b61230c8e838f0161206d565b995060608d0135915080821115612321578788fd5b61232d8e838f0161206d565b985060808d0135915080821115612342578788fd5b61234e8e838f0161206d565b975060a08d0135915080821115612363578687fd5b61236f8e838f0161206d565b965060c08d0135915080821115612384578586fd5b6123908e838f0161206d565b955060e08d013594506101008d013593506101208d01359150808211156123b5578283fd5b506123c28d828e01611fcd565b9150509295989b9194979a5092959850565b6000602082840312156123e5578081fd5b5035919050565b600080604083850312156123fe578182fd5b82359150602083013567ffffffffffffffff81111561241b578182fd5b61227e85828601611fcd565b600081518084526020808501808196508360051b81019150828601855b8581101561246e57828403895261245c84835161247b565b98850198935090840190600101612444565b5091979650505050505050565b600081518084526124938160208601602086016129af565b601f01601f19169290920160200192915050565b600081546124b4816129db565b8085526020600183811680156124d157600181146124e557612513565b60ff19851688840152604088019550612513565b866000528260002060005b8581101561250b5781548a82018601529083019084016124f0565b890184019650505b505050505092915050565b600082516125308184602087016129af565b9190910192915050565b6000835161254c8184602088016129af565b8351908301906125608183602088016129af565b01949350505050565b6000808354612577816129db565b6001828116801561258f57600181146125a0576125cc565b60ff198416875282870194506125cc565b8786526020808720875b858110156125c35781548a8201529084019082016125aa565b50505082870194505b50929695505050505050565b6001600160a01b038581168252841660208201526040810183905260806060820181905260009061260b9083018461247b565b9695505050505050565b6001600160a01b03831681526040602082018190526000906110ed90830184612427565b60a08152600061264c60a0830188612427565b602083018790526001600160a01b0386166040840152828103606084015261267481866124a7565b9050828103608084015261268881856124a7565b98975050505050505050565b602080825282518282018190526000919060409081850190600581811b87018401888601875b8481101561274e57898303603f19018652815180518452888101516001600160a01b031689850152870151606088850181905281519085018190529089019060808086019180881b8701909101908c5b8181101561273857607f1988840301845261272683865161247b565b948d0194938d0193925060010161270a565b5050978a019794505050908701906001016126ba565b50909998505050505050505050565b60208152600061099b602083018461247b565b6101808152600061278561018083018f61247b565b8281036020840152612797818f61247b565b905082810360408401526127ab818e61247b565b905082810360608401526127bf818d61247b565b905082810360808401526127d3818c61247b565b905082810360a08401526127e7818b61247b565b905082810360c08401526127fb818a61247b565b90508760e08401528661010084015282810361012084015261281d8187612427565b9150508361014083015261283d6101608301846001600160a01b03169052565b9d9c50505050505050505050505050565b606081526000612861606083018661247b565b846020840152828103604084015261260b8185612427565b60208082526032908201527f4552433732313a207472616e7366657220746f206e6f6e20455243373231526560408201527131b2b4bb32b91034b6b83632b6b2b73a32b960711b606082015260800190565b60208082526031908201527f4552433732313a207472616e736665722063616c6c6572206973206e6f74206f6040820152701ddb995c881b9bdc88185c1c1c9bdd9959607a1b606082015260800190565b604051601f8201601f1916810167ffffffffffffffff8111828210171561294557612945612a71565b604052919050565b6000821982111561296057612960612a45565b500190565b60008261297457612974612a5b565b500490565b600081600019048311821515161561299357612993612a45565b500290565b6000828210156129aa576129aa612a45565b500390565b60005b838110156129ca5781810151838201526020016129b2565b83811115610f785750506000910152565b600181811c908216806129ef57607f821691505b60208210811415612a1057634e487b7160e01b600052602260045260246000fd5b50919050565b6000600019821415612a2a57612a2a612a45565b5060010190565b600082612a4057612a40612a5b565b500690565b634e487b7160e01b600052601160045260246000fd5b634e487b7160e01b600052601260045260246000fd5b634e487b7160e01b600052604160045260246000fd5b6001600160e01b031981168114611f5657600080fdfea264697066735822122012a2ccf4b5b9531aca566db5e25c73ed8ad6be6d48fde9861f5ec5c6624f0b9964736f6c63430008040033",
  "linkReferences": {},
  "deployedLinkReferences": {}
}